{
  "contractName": "CrowdFund",
  "abi": [
    {
      "inputs": [
        {
          "internalType": "address",
          "name": "_tokenAddress",
          "type": "address"
        }
      ],
      "stateMutability": "nonpayable",
      "type": "constructor"
    },
    {
      "anonymous": false,
      "inputs": [
        {
          "indexed": false,
          "internalType": "address",
          "name": "sender",
          "type": "address"
        },
        {
          "indexed": false,
          "internalType": "uint256",
          "name": "amount",
          "type": "uint256"
        }
      ],
      "name": "amountContributed",
      "type": "event"
    },
    {
      "anonymous": false,
      "inputs": [
        {
          "indexed": false,
          "internalType": "string",
          "name": "description",
          "type": "string"
        },
        {
          "indexed": false,
          "internalType": "address",
          "name": "recipient",
          "type": "address"
        },
        {
          "indexed": false,
          "internalType": "uint256",
          "name": "goalAmount",
          "type": "uint256"
        }
      ],
      "name": "createdProject",
      "type": "event"
    },
    {
      "anonymous": false,
      "inputs": [
        {
          "indexed": false,
          "internalType": "uint256",
          "name": "amount",
          "type": "uint256"
        }
      ],
      "name": "fundBalance",
      "type": "event"
    },
    {
      "anonymous": false,
      "inputs": [
        {
          "indexed": false,
          "internalType": "uint256",
          "name": "projectNo",
          "type": "uint256"
        }
      ],
      "name": "madePayment",
      "type": "event"
    },
    {
      "anonymous": false,
      "inputs": [
        {
          "indexed": false,
          "internalType": "address",
          "name": "receiver",
          "type": "address"
        },
        {
          "indexed": false,
          "internalType": "uint256",
          "name": "refundAmount",
          "type": "uint256"
        }
      ],
      "name": "refundMade",
      "type": "event"
    },
    {
      "inputs": [],
      "name": "CrowdfundTokenAddress",
      "outputs": [
        {
          "internalType": "address",
          "name": "",
          "type": "address"
        }
      ],
      "stateMutability": "view",
      "type": "function",
      "constant": true
    },
    {
      "inputs": [
        {
          "internalType": "address",
          "name": "",
          "type": "address"
        }
      ],
      "name": "contributors",
      "outputs": [
        {
          "internalType": "uint256",
          "name": "",
          "type": "uint256"
        }
      ],
      "stateMutability": "view",
      "type": "function",
      "constant": true
    },
    {
      "inputs": [],
      "name": "isManager",
      "outputs": [
        {
          "internalType": "bool",
          "name": "",
          "type": "bool"
        }
      ],
      "stateMutability": "view",
      "type": "function",
      "constant": true
    },
    {
      "inputs": [],
      "name": "manager",
      "outputs": [
        {
          "internalType": "address",
          "name": "",
          "type": "address"
        }
      ],
      "stateMutability": "view",
      "type": "function",
      "constant": true
    },
    {
      "inputs": [],
      "name": "noOfContributors",
      "outputs": [
        {
          "internalType": "uint256",
          "name": "",
          "type": "uint256"
        }
      ],
      "stateMutability": "view",
      "type": "function",
      "constant": true
    },
    {
      "inputs": [],
      "name": "numProjects",
      "outputs": [
        {
          "internalType": "uint256",
          "name": "",
          "type": "uint256"
        }
      ],
      "stateMutability": "view",
      "type": "function",
      "constant": true
    },
    {
      "inputs": [
        {
          "internalType": "uint256",
          "name": "",
          "type": "uint256"
        }
      ],
      "name": "projects",
      "outputs": [
        {
          "internalType": "string",
          "name": "description",
          "type": "string"
        },
        {
          "internalType": "address payable",
          "name": "recipient",
          "type": "address"
        },
        {
          "internalType": "uint256",
          "name": "goalAmount",
          "type": "uint256"
        },
        {
          "internalType": "uint256",
          "name": "raisedAmount",
          "type": "uint256"
        },
        {
          "internalType": "bool",
          "name": "completed",
          "type": "bool"
        }
      ],
      "stateMutability": "view",
      "type": "function",
      "constant": true
    },
    {
      "stateMutability": "payable",
      "type": "receive",
      "payable": true
    },
    {
      "inputs": [
        {
          "internalType": "string",
          "name": "_description",
          "type": "string"
        },
        {
          "internalType": "address payable",
          "name": "_recipient",
          "type": "address"
        },
        {
          "internalType": "uint256",
          "name": "_goalAmount",
          "type": "uint256"
        }
      ],
      "name": "createProject",
      "outputs": [],
      "stateMutability": "nonpayable",
      "type": "function"
    },
    {
      "inputs": [
        {
          "internalType": "uint256",
          "name": "_projectNo",
          "type": "uint256"
        }
      ],
      "name": "contributeToProject",
      "outputs": [],
      "stateMutability": "payable",
      "type": "function",
      "payable": true
    },
    {
      "inputs": [],
      "name": "getContractBalance",
      "outputs": [
        {
          "internalType": "uint256",
          "name": "",
          "type": "uint256"
        }
      ],
      "stateMutability": "view",
      "type": "function",
      "constant": true
    },
    {
      "inputs": [
        {
          "internalType": "uint256",
          "name": "_projectNo",
          "type": "uint256"
        }
      ],
      "name": "makePayment",
      "outputs": [],
      "stateMutability": "nonpayable",
      "type": "function"
    },
    {
      "inputs": [
        {
          "internalType": "uint256",
          "name": "_projectNo",
          "type": "uint256"
        }
      ],
      "name": "refund",
      "outputs": [],
      "stateMutability": "nonpayable",
      "type": "function"
    }
  ],
  "bytecode": "0x60806040523480156200001157600080fd5b50604051620018d2380380620018d28339818101604052810190620000379190620000d6565b336000806101000a81548173ffffffffffffffffffffffffffffffffffffffff021916908373ffffffffffffffffffffffffffffffffffffffff16021790555080600360006101000a81548173ffffffffffffffffffffffffffffffffffffffff021916908373ffffffffffffffffffffffffffffffffffffffff160217905550506200015b565b600081519050620000d08162000141565b92915050565b600060208284031215620000ef57620000ee6200013c565b5b6000620000ff84828501620000bf565b91505092915050565b600062000115826200011c565b9050919050565b600073ffffffffffffffffffffffffffffffffffffffff82169050919050565b600080fd5b6200014c8162000108565b81146200015857600080fd5b50565b611767806200016b6000396000f3fe6080604052600436106100ab5760003560e01c80635a067baa116100645780635a067baa146101dd5780636c259a57146102085780636f9fb98a14610233578063939f69c91461025e578063a7d977791461027a578063c56a3e88146102a3576100b2565b8063107046bd146100b75780631f6d4942146100f8578063278ecde114610135578063481c6a751461015e5780634e260f6f146101895780635114cb52146101b4576100b2565b366100b257005b600080fd5b3480156100c357600080fd5b506100de60048036038101906100d99190610ebd565b6102ce565b6040516100ef959493929190611151565b60405180910390f35b34801561010457600080fd5b5061011f600480360381019061011a9190610df4565b6103b9565b60405161012c919061124b565b60405180910390f35b34801561014157600080fd5b5061015c60048036038101906101579190610ebd565b6103d1565b005b34801561016a57600080fd5b506101736106de565b604051610180919061101d565b60405180910390f35b34801561019557600080fd5b5061019e610707565b6040516101ab919061124b565b60405180910390f35b3480156101c057600080fd5b506101db60048036038101906101d69190610ebd565b61070d565b005b3480156101e957600080fd5b506101f261090a565b6040516101ff919061124b565b60405180910390f35b34801561021457600080fd5b5061021d610910565b60405161022a919061101d565b60405180910390f35b34801561023f57600080fd5b50610248610936565b604051610255919061124b565b60405180910390f35b61027860048036038101906102739190610ebd565b61093e565b005b34801561028657600080fd5b506102a1600480360381019061029c9190610e4e565b610af1565b005b3480156102af57600080fd5b506102b8610c36565b6040516102c591906110f8565b60405180910390f35b60046020528060005260406000206000915090508060000180546102f19061145e565b80601f016020809104026020016040519081016040528092919081815260200182805461031d9061145e565b801561036a5780601f1061033f5761010080835404028352916020019161036a565b820191906000526020600020905b81548152906001019060200180831161034d57829003601f168201915b5050505050908060010160009054906101000a900473ffffffffffffffffffffffffffffffffffffffff16908060020154908060030154908060040160009054906101000a900460ff16905085565b60016020528060005260406000206000915090505481565b60006004600083815260200190815260200160002090508060020154816003015410610432576040517f08c379a00000000000000000000000000000000000000000000000000000000081526004016104299061120b565b60405180910390fd5b6000600160003373ffffffffffffffffffffffffffffffffffffffff1673ffffffffffffffffffffffffffffffffffffffff16815260200190815260200160002054116104b4576040517f08c379a00000000000000000000000000000000000000000000000000000000081526004016104ab906111ab565b60405180910390fd5b60003390507f87972e753f2ee5f467201ebadf9d5d9ffda5102b62e47a5218087fb3f72422a181600160003373ffffffffffffffffffffffffffffffffffffffff1673ffffffffffffffffffffffffffffffffffffffff16815260200190815260200160002054604051610529929190611038565b60405180910390a1600360009054906101000a900473ffffffffffffffffffffffffffffffffffffffff1673ffffffffffffffffffffffffffffffffffffffff166323b872dd3033600160003373ffffffffffffffffffffffffffffffffffffffff1673ffffffffffffffffffffffffffffffffffffffff168152602001908152602001600020546040518463ffffffff1660e01b81526004016105cf93929190611098565b602060405180830381600087803b1580156105e957600080fd5b505af11580156105fd573d6000803e3d6000fd5b505050506040513d601f19601f820116820180604052508101906106219190610e21565b50600160003373ffffffffffffffffffffffffffffffffffffffff1673ffffffffffffffffffffffffffffffffffffffff16815260200190815260200160002054826003016000828254610675919061132e565b925050819055506002600081548092919061068f90611434565b91905055506000600160003373ffffffffffffffffffffffffffffffffffffffff1673ffffffffffffffffffffffffffffffffffffffff16815260200190815260200160002081905550505050565b60008060009054906101000a900473ffffffffffffffffffffffffffffffffffffffff16905090565b60025481565b610715610c36565b610754576040517f08c379a000000000000000000000000000000000000000000000000000000000815260040161074b9061122b565b60405180910390fd5b600060046000838152602001908152602001600020905080600201548160030154101561078057600080fd5b600015158160040160009054906101000a900460ff161515146107d8576040517f08c379a00000000000000000000000000000000000000000000000000000000081526004016107cf906111eb565b60405180910390fd5b7fed166535efaf70ec24d63aa6d50f5aa9cf33003815cc2da4c99cc39592699dea82604051610807919061124b565b60405180910390a1600360009054906101000a900473ffffffffffffffffffffffffffffffffffffffff1673ffffffffffffffffffffffffffffffffffffffff166323b872dd308360010160009054906101000a900473ffffffffffffffffffffffffffffffffffffffff1684600201546040518463ffffffff1660e01b815260040161089693929190611061565b602060405180830381600087803b1580156108b057600080fd5b505af11580156108c4573d6000803e3d6000fd5b505050506040513d601f19601f820116820180604052508101906108e89190610e21565b5060018160040160006101000a81548160ff0219169083151502179055505050565b60055481565b600360009054906101000a900473ffffffffffffffffffffffffffffffffffffffff1681565b600047905090565b600060046000838152602001908152602001600020905080600301548160020154610969919061132e565b3411156109ab576040517f08c379a00000000000000000000000000000000000000000000000000000000081526004016109a2906111cb565b60405180910390fd5b7fd7f836870836febcba036447f5bf5049d6709d41d964b92b327ea9a2c7ccfb7d33346040516109dc9291906110cf565b60405180910390a17fbe079f3449d45b6b62ec365e6a2db78f3069f12787c8ada6c9e7811c3469145047604051610a13919061124b565b60405180910390a16000600160003373ffffffffffffffffffffffffffffffffffffffff1673ffffffffffffffffffffffffffffffffffffffff168152602001908152602001600020541415610a7c5760026000815480929190610a76906114c1565b91905055505b34600160003373ffffffffffffffffffffffffffffffffffffffff1673ffffffffffffffffffffffffffffffffffffffff1681526020019081526020016000206000828254610acb91906112d8565b9250508190555034816003016000828254610ae691906112d8565b925050819055505050565b610af9610c36565b610b38576040517f08c379a0000000000000000000000000000000000000000000000000000000008152600401610b2f9061122b565b60405180910390fd5b7f9bbdddb9f6bbcb119f5f6d46d106dab175d6ab8b81cee5fc5fbe17fdfc315d71838383604051610b6b93929190611113565b60405180910390a16000600460006005548152602001908152602001600020905060056000815480929190610b9f906114c1565b919050555083816000019080519060200190610bbc929190610c8d565b50828160010160006101000a81548173ffffffffffffffffffffffffffffffffffffffff021916908373ffffffffffffffffffffffffffffffffffffffff16021790555081816002018190555060008160040160006101000a81548160ff0219169083151502179055506000816003018190555050505050565b60008060009054906101000a900473ffffffffffffffffffffffffffffffffffffffff1673ffffffffffffffffffffffffffffffffffffffff163373ffffffffffffffffffffffffffffffffffffffff1614905090565b828054610c999061145e565b90600052602060002090601f016020900481019282610cbb5760008555610d02565b82601f10610cd457805160ff1916838001178555610d02565b82800160010185558215610d02579182015b82811115610d01578251825591602001919060010190610ce6565b5b509050610d0f9190610d13565b5090565b5b80821115610d2c576000816000905550600101610d14565b5090565b6000610d43610d3e8461128b565b611266565b905082815260208101848484011115610d5f57610d5e61159c565b5b610d6a8482856113f2565b509392505050565b600081359050610d81816116d5565b92915050565b600081359050610d96816116ec565b92915050565b600081519050610dab81611703565b92915050565b600082601f830112610dc657610dc5611597565b5b8135610dd6848260208601610d30565b91505092915050565b600081359050610dee8161171a565b92915050565b600060208284031215610e0a57610e096115a6565b5b6000610e1884828501610d72565b91505092915050565b600060208284031215610e3757610e366115a6565b5b6000610e4584828501610d9c565b91505092915050565b600080600060608486031215610e6757610e666115a6565b5b600084013567ffffffffffffffff811115610e8557610e846115a1565b5b610e9186828701610db1565b9350506020610ea286828701610d87565b9250506040610eb386828701610ddf565b9150509250925092565b600060208284031215610ed357610ed26115a6565b5b6000610ee184828501610ddf565b91505092915050565b610ef3816113bc565b82525050565b610f0281611374565b82525050565b610f1181611362565b82525050565b610f2081611386565b82525050565b6000610f31826112bc565b610f3b81856112c7565b9350610f4b818560208601611401565b610f54816115ab565b840191505092915050565b6000610f6c601d836112c7565b9150610f77826115bc565b602082019050919050565b6000610f8f603f836112c7565b9150610f9a826115e5565b604082019050919050565b6000610fb2601a836112c7565b9150610fbd82611634565b602082019050919050565b6000610fd5601f836112c7565b9150610fe08261165d565b602082019050919050565b6000610ff8602a836112c7565b915061100382611686565b604082019050919050565b611017816113b2565b82525050565b60006020820190506110326000830184610f08565b92915050565b600060408201905061104d6000830185610eea565b61105a602083018461100e565b9392505050565b60006060820190506110766000830186610f08565b6110836020830185610eea565b611090604083018461100e565b949350505050565b60006060820190506110ad6000830186610f08565b6110ba6020830185610f08565b6110c7604083018461100e565b949350505050565b60006040820190506110e46000830185610f08565b6110f1602083018461100e565b9392505050565b600060208201905061110d6000830184610f17565b92915050565b6000606082019050818103600083015261112d8186610f26565b905061113c6020830185610eea565b611149604083018461100e565b949350505050565b600060a082019050818103600083015261116b8188610f26565b905061117a6020830187610ef9565b611187604083018661100e565b611194606083018561100e565b6111a16080830184610f17565b9695505050505050565b600060208201905081810360008301526111c481610f5f565b9050919050565b600060208201905081810360008301526111e481610f82565b9050919050565b6000602082019050818103600083015261120481610fa5565b9050919050565b6000602082019050818103600083015261122481610fc8565b9050919050565b6000602082019050818103600083015261124481610feb565b9050919050565b6000602082019050611260600083018461100e565b92915050565b6000611270611281565b905061127c8282611490565b919050565b6000604051905090565b600067ffffffffffffffff8211156112a6576112a5611568565b5b6112af826115ab565b9050602081019050919050565b600081519050919050565b600082825260208201905092915050565b60006112e3826113b2565b91506112ee836113b2565b9250827fffffffffffffffffffffffffffffffffffffffffffffffffffffffffffffffff038211156113235761132261150a565b5b828201905092915050565b6000611339826113b2565b9150611344836113b2565b9250828210156113575761135661150a565b5b828203905092915050565b600061136d82611392565b9050919050565b600061137f82611392565b9050919050565b60008115159050919050565b600073ffffffffffffffffffffffffffffffffffffffff82169050919050565b6000819050919050565b60006113c7826113ce565b9050919050565b60006113d9826113e0565b9050919050565b60006113eb82611392565b9050919050565b82818337600083830152505050565b60005b8381101561141f578082015181840152602081019050611404565b8381111561142e576000848401525b50505050565b600061143f826113b2565b915060008214156114535761145261150a565b5b600182039050919050565b6000600282049050600182168061147657607f821691505b6020821081141561148a57611489611539565b5b50919050565b611499826115ab565b810181811067ffffffffffffffff821117156114b8576114b7611568565b5b80604052505050565b60006114cc826113b2565b91507fffffffffffffffffffffffffffffffffffffffffffffffffffffffffffffffff8214156114ff576114fe61150a565b5b600182019050919050565b7f4e487b7100000000000000000000000000000000000000000000000000000000600052601160045260246000fd5b7f4e487b7100000000000000000000000000000000000000000000000000000000600052602260045260246000fd5b7f4e487b7100000000000000000000000000000000000000000000000000000000600052604160045260246000fd5b600080fd5b600080fd5b600080fd5b600080fd5b6000601f19601f8301169050919050565b7f596f75206861766520616c72656479206265656e20726566756e646564000000600082015250565b7f416d6f756e742069732067726561746572207468616e2072657175697265642060008201527f616d6f756e742c206b696e646c7920726564756365207468652076616c756500602082015250565b7f5265717565737420686173206265656e20636f6d706c65746564000000000000600082015250565b7f596f7520617265206e6f7420656c696769626c6520666f7220726566756e6400600082015250565b7f46756e6374696f6e2061636365737369626c65206f6e6c79206279207468652060008201527f6d616e6167657220212100000000000000000000000000000000000000000000602082015250565b6116de81611362565b81146116e957600080fd5b50565b6116f581611374565b811461170057600080fd5b50565b61170c81611386565b811461171757600080fd5b50565b611723816113b2565b811461172e57600080fd5b5056fea264697066735822122043994a25eab1aa3ba95144c448af1b9a0a6fe69c4ff0d90711e7f77a9ad93c3664736f6c63430008060033",
  "immutableReferences": {},
  "source": "// SPDX-License-Identifier: MIT\r\npragma solidity 0.8.6;\r\nimport './Ownable.sol';\r\nimport \"@openzeppelin/contracts/token/ERC20/IERC20.sol\";\r\n\r\ncontract CrowdFund is Ownable {\r\n    // Mapping for the contributors of the crowdfund\r\n    // Address of contributor mapped to the amount\r\n    mapping(address => uint256) public contributors;\r\n    // The count of contributors for the project\r\n    uint256 public noOfContributors;\r\n\r\n    address public CrowdfundTokenAddress;\r\n\r\n    // The project structure consisting of different variables in a struct\r\n    // description : The description of the project\r\n    // value : The amount that is required to fund this project\r\n    // completed : The status of the project\r\n    // noOfVoters : The number of voters voted to fund the project\r\n    // Mapping of the voters address and vote , false by default, true if voted\r\n    struct Project {\r\n        string description;\r\n        address payable recipient;\r\n        uint256 goalAmount;\r\n        uint256 raisedAmount;\r\n        bool completed;\r\n    }\r\n\r\n    // Mapping of the projects variable to different Projects\r\n    mapping(uint256 => Project) public projects;\r\n    // Number of projects in the crowdfund\r\n    uint256 public numProjects;\r\n\r\n    // Constructor to set the goalAmount to be raised\r\n    constructor(address _tokenAddress) { \r\n        CrowdfundTokenAddress = _tokenAddress;\r\n     }\r\n\r\n    //his function helps the users to transfer eth directly to the smartcontract\r\n    receive() external payable {}\r\n\r\n    event amountContributed(address sender, uint256 amount);\r\n\r\n    event fundBalance(uint256 amount);\r\n\r\n    event createdProject(\r\n        string description,\r\n        address recipient,\r\n        uint256 goalAmount\r\n    );\r\n\r\n    event madePayment(uint256 projectNo);\r\n\r\n    event refundMade(address receiver, uint256 refundAmount);\r\n\r\n    // function to create projects\r\n    function createProject(\r\n        string memory _description,\r\n        address payable _recipient,\r\n        uint256 _goalAmount\r\n    ) public onlyManager {\r\n        emit createdProject(_description, _recipient, _goalAmount);\r\n        Project storage newProject = projects[numProjects];\r\n        numProjects++;\r\n        newProject.description = _description;\r\n        newProject.recipient = _recipient;\r\n        newProject.goalAmount = _goalAmount;\r\n        newProject.completed = false;\r\n        newProject.raisedAmount = 0;\r\n    }\r\n\r\n     // function to send ethers to the contract\r\n    function contributeToProject(uint256 _projectNo) public payable {\r\n        Project storage thisProject = projects[_projectNo];\r\n        require(\r\n            msg.value <= (thisProject.goalAmount - thisProject.raisedAmount),\r\n            \"Amount is greater than required amount, kindly reduce the value\"\r\n        );\r\n        emit amountContributed(msg.sender, msg.value);\r\n        emit fundBalance(address(this).balance);\r\n        if (contributors[msg.sender] == 0) {\r\n            noOfContributors++;\r\n        }\r\n        contributors[msg.sender] += msg.value;\r\n        thisProject.raisedAmount += msg.value;\r\n    }\r\n\r\n    // function to get balance of the contract\r\n    function getContractBalance() public view returns (uint256) {\r\n        return address(this).balance;\r\n    }\r\n\r\n    // function to make payment to the project receipent\r\n    function makePayment(uint256 _projectNo) public onlyManager {\r\n        Project storage thisProject = projects[_projectNo];\r\n        require(thisProject.raisedAmount >= thisProject.goalAmount);\r\n        require(thisProject.completed == false, \"Request has been completed\");\r\n        emit madePayment(_projectNo);\r\n        IERC20(CrowdfundTokenAddress).transferFrom(address(this), thisProject.recipient, thisProject.goalAmount);\r\n        thisProject.completed = true;\r\n    }\r\n\r\n    // function to process refund for the contributors if conditions are met\r\n    function refund(uint256 _projectNo) public {\r\n        Project storage thisProject = projects[_projectNo];\r\n        require(\r\n            thisProject.raisedAmount < thisProject.goalAmount,\r\n            \"You are not eligible for refund\"\r\n        );\r\n        require(contributors[msg.sender] > 0, \"You have alredy been refunded\");\r\n        address payable user = payable(msg.sender);\r\n        emit refundMade(user, contributors[msg.sender]);\r\n        IERC20(CrowdfundTokenAddress).transferFrom(address(this), msg.sender, contributors[msg.sender]);\r\n        thisProject.raisedAmount -= contributors[msg.sender];\r\n        noOfContributors--;\r\n        contributors[msg.sender] = 0;\r\n    }\r\n}\r\n",
  "sourcePath": "C:\\Users\\vishw\\Desktop\\crowd\\crowdfund\\crowd\\contracts\\Crowdfund.sol",
  "compiler": {
    "name": "solc",
    "version": "0.8.6+commit.11564f7e.Emscripten.clang"
  },
  "schemaVersion": "3.4.11",
  "updatedAt": "2023-02-14T17:30:45.700Z",
  "networkType": "ethereum",
  "devdoc": {
    "kind": "dev",
    "methods": {},
    "version": 1
  },
  "userdoc": {
    "kind": "user",
    "methods": {},
    "version": 1
  }
}