{
  "contractName": "CrowdFund",
  "abi": [
    {
      "inputs": [],
      "stateMutability": "nonpayable",
      "type": "constructor"
    },
    {
      "anonymous": false,
      "inputs": [
        {
          "indexed": false,
          "internalType": "address",
          "name": "sender",
          "type": "address"
        },
        {
          "indexed": false,
          "internalType": "uint256",
          "name": "amount",
          "type": "uint256"
        }
      ],
      "name": "amountContributed",
      "type": "event"
    },
    {
      "anonymous": false,
      "inputs": [
        {
          "indexed": false,
          "internalType": "string",
          "name": "description",
          "type": "string"
        },
        {
          "indexed": false,
          "internalType": "address",
          "name": "recipient",
          "type": "address"
        },
        {
          "indexed": false,
          "internalType": "uint256",
          "name": "goalAmount",
          "type": "uint256"
        }
      ],
      "name": "createdProject",
      "type": "event"
    },
    {
      "anonymous": false,
      "inputs": [
        {
          "indexed": false,
          "internalType": "uint256",
          "name": "amount",
          "type": "uint256"
        }
      ],
      "name": "fundBalance",
      "type": "event"
    },
    {
      "anonymous": false,
      "inputs": [
        {
          "indexed": false,
          "internalType": "uint256",
          "name": "projectNo",
          "type": "uint256"
        }
      ],
      "name": "madePayment",
      "type": "event"
    },
    {
      "anonymous": false,
      "inputs": [
        {
          "indexed": false,
          "internalType": "address",
          "name": "receiver",
          "type": "address"
        },
        {
          "indexed": false,
          "internalType": "uint256",
          "name": "refundAmount",
          "type": "uint256"
        }
      ],
      "name": "refundMade",
      "type": "event"
    },
    {
      "inputs": [
        {
          "internalType": "address",
          "name": "",
          "type": "address"
        }
      ],
      "name": "contributors",
      "outputs": [
        {
          "internalType": "uint256",
          "name": "",
          "type": "uint256"
        }
      ],
      "stateMutability": "view",
      "type": "function",
      "constant": true
    },
    {
      "inputs": [],
      "name": "isManager",
      "outputs": [
        {
          "internalType": "bool",
          "name": "",
          "type": "bool"
        }
      ],
      "stateMutability": "view",
      "type": "function",
      "constant": true
    },
    {
      "inputs": [],
      "name": "manager",
      "outputs": [
        {
          "internalType": "address",
          "name": "",
          "type": "address"
        }
      ],
      "stateMutability": "view",
      "type": "function",
      "constant": true
    },
    {
      "inputs": [],
      "name": "noOfContributors",
      "outputs": [
        {
          "internalType": "uint256",
          "name": "",
          "type": "uint256"
        }
      ],
      "stateMutability": "view",
      "type": "function",
      "constant": true
    },
    {
      "inputs": [],
      "name": "numProjects",
      "outputs": [
        {
          "internalType": "uint256",
          "name": "",
          "type": "uint256"
        }
      ],
      "stateMutability": "view",
      "type": "function",
      "constant": true
    },
    {
      "inputs": [
        {
          "internalType": "uint256",
          "name": "",
          "type": "uint256"
        }
      ],
      "name": "projects",
      "outputs": [
        {
          "internalType": "string",
          "name": "description",
          "type": "string"
        },
        {
          "internalType": "address payable",
          "name": "recipient",
          "type": "address"
        },
        {
          "internalType": "uint256",
          "name": "goalAmount",
          "type": "uint256"
        },
        {
          "internalType": "uint256",
          "name": "raisedAmount",
          "type": "uint256"
        },
        {
          "internalType": "bool",
          "name": "completed",
          "type": "bool"
        }
      ],
      "stateMutability": "view",
      "type": "function",
      "constant": true
    },
    {
      "stateMutability": "payable",
      "type": "receive",
      "payable": true
    },
    {
      "inputs": [
        {
          "internalType": "string",
          "name": "_description",
          "type": "string"
        },
        {
          "internalType": "address payable",
          "name": "_recipient",
          "type": "address"
        },
        {
          "internalType": "uint256",
          "name": "_goalAmount",
          "type": "uint256"
        }
      ],
      "name": "createProject",
      "outputs": [],
      "stateMutability": "nonpayable",
      "type": "function"
    },
    {
      "inputs": [
        {
          "internalType": "uint256",
          "name": "_projectNo",
          "type": "uint256"
        }
      ],
      "name": "contributeToProject",
      "outputs": [],
      "stateMutability": "payable",
      "type": "function",
      "payable": true
    },
    {
      "inputs": [],
      "name": "getContractBalance",
      "outputs": [
        {
          "internalType": "uint256",
          "name": "",
          "type": "uint256"
        }
      ],
      "stateMutability": "view",
      "type": "function",
      "constant": true
    },
    {
      "inputs": [
        {
          "internalType": "uint256",
          "name": "_projectNo",
          "type": "uint256"
        }
      ],
      "name": "makePayment",
      "outputs": [],
      "stateMutability": "nonpayable",
      "type": "function"
    },
    {
      "inputs": [
        {
          "internalType": "uint256",
          "name": "_projectNo",
          "type": "uint256"
        }
      ],
      "name": "refund",
      "outputs": [],
      "stateMutability": "nonpayable",
      "type": "function"
    }
  ],
  "bytecode": "0x608060405234801561001057600080fd5b50336000806101000a81548173ffffffffffffffffffffffffffffffffffffffff021916908373ffffffffffffffffffffffffffffffffffffffff160217905550611723806100606000396000f3fe6080604052600436106100a05760003560e01c80635114cb52116100645780635114cb52146101a95780635a067baa146101d25780636f9fb98a146101fd578063939f69c914610228578063a7d9777914610244578063c56a3e881461026d576100a7565b8063107046bd146100ac5780631f6d4942146100ed578063278ecde11461012a578063481c6a75146101535780634e260f6f1461017e576100a7565b366100a757005b600080fd5b3480156100b857600080fd5b506100d360048036038101906100ce9190610b9d565b610298565b6040516100e4959493929190610cc5565b60405180910390f35b3480156100f957600080fd5b50610114600480360381019061010f9190610d5d565b610383565b6040516101219190610d8a565b60405180910390f35b34801561013657600080fd5b50610151600480360381019061014c9190610b9d565b61039b565b005b34801561015f57600080fd5b5061016861063d565b6040516101759190610db4565b60405180910390f35b34801561018a57600080fd5b50610193610666565b6040516101a09190610d8a565b60405180910390f35b3480156101b557600080fd5b506101d060048036038101906101cb9190610b9d565b61066c565b005b3480156101de57600080fd5b506101e76107fe565b6040516101f49190610d8a565b60405180910390f35b34801561020957600080fd5b50610212610804565b60405161021f9190610d8a565b60405180910390f35b610242600480360381019061023d9190610b9d565b61080c565b005b34801561025057600080fd5b5061026b60048036038101906102669190610f30565b6109be565b005b34801561027957600080fd5b50610282610afc565b60405161028f9190610f9f565b60405180910390f35b60036020528060005260406000206000915090508060000180546102bb90610fe9565b80601f01602080910402602001604051908101604052809291908181526020018280546102e790610fe9565b80156103345780601f1061030957610100808354040283529160200191610334565b820191906000526020600020905b81548152906001019060200180831161031757829003601f168201915b5050505050908060010160009054906101000a900473ffffffffffffffffffffffffffffffffffffffff16908060020154908060030154908060040160009054906101000a900460ff16905085565b60016020528060005260406000206000915090505481565b600060036000838152602001908152602001600020905080600201548160030154106103fc576040517f08c379a00000000000000000000000000000000000000000000000000000000081526004016103f390611066565b60405180910390fd5b6000600160003373ffffffffffffffffffffffffffffffffffffffff1673ffffffffffffffffffffffffffffffffffffffff168152602001908152602001600020541161047e576040517f08c379a0000000000000000000000000000000000000000000000000000000008152600401610475906110d2565b60405180910390fd5b60003390507f87972e753f2ee5f467201ebadf9d5d9ffda5102b62e47a5218087fb3f72422a181600160003373ffffffffffffffffffffffffffffffffffffffff1673ffffffffffffffffffffffffffffffffffffffff168152602001908152602001600020546040516104f3929190611151565b60405180910390a18073ffffffffffffffffffffffffffffffffffffffff166108fc600160003373ffffffffffffffffffffffffffffffffffffffff1673ffffffffffffffffffffffffffffffffffffffff168152602001908152602001600020549081150290604051600060405180830381858888f19350505050158015610580573d6000803e3d6000fd5b50600160003373ffffffffffffffffffffffffffffffffffffffff1673ffffffffffffffffffffffffffffffffffffffff168152602001908152602001600020548260030160008282546105d491906111a9565b92505081905550600260008154809291906105ee906111dd565b91905055506000600160003373ffffffffffffffffffffffffffffffffffffffff1673ffffffffffffffffffffffffffffffffffffffff16815260200190815260200160002081905550505050565b60008060009054906101000a900473ffffffffffffffffffffffffffffffffffffffff16905090565b60025481565b610674610afc565b6106b3576040517f08c379a00000000000000000000000000000000000000000000000000000000081526004016106aa90611278565b60405180910390fd5b60006003600083815260200190815260200160002090508060020154816003015410156106df57600080fd5b600015158160040160009054906101000a900460ff16151514610737576040517f08c379a000000000000000000000000000000000000000000000000000000000815260040161072e906112e4565b60405180910390fd5b7fed166535efaf70ec24d63aa6d50f5aa9cf33003815cc2da4c99cc39592699dea826040516107669190610d8a565b60405180910390a18060010160009054906101000a900473ffffffffffffffffffffffffffffffffffffffff1673ffffffffffffffffffffffffffffffffffffffff166108fc82600201549081150290604051600060405180830381858888f193505050501580156107dc573d6000803e3d6000fd5b5060018160040160006101000a81548160ff0219169083151502179055505050565b60045481565b600047905090565b60006003600083815260200190815260200160002090508060030154816002015461083791906111a9565b341115610879576040517f08c379a000000000000000000000000000000000000000000000000000000000815260040161087090611376565b60405180910390fd5b7fd7f836870836febcba036447f5bf5049d6709d41d964b92b327ea9a2c7ccfb7d33346040516108aa929190611396565b60405180910390a17fbe079f3449d45b6b62ec365e6a2db78f3069f12787c8ada6c9e7811c34691450476040516108e19190610d8a565b60405180910390a16000600160003373ffffffffffffffffffffffffffffffffffffffff1673ffffffffffffffffffffffffffffffffffffffff16815260200190815260200160002054036109495760026000815480929190610943906113bf565b91905055505b34600160003373ffffffffffffffffffffffffffffffffffffffff1673ffffffffffffffffffffffffffffffffffffffff16815260200190815260200160002060008282546109989190611407565b92505081905550348160030160008282546109b39190611407565b925050819055505050565b6109c6610afc565b610a05576040517f08c379a00000000000000000000000000000000000000000000000000000000081526004016109fc90611278565b60405180910390fd5b7f9bbdddb9f6bbcb119f5f6d46d106dab175d6ab8b81cee5fc5fbe17fdfc315d71838383604051610a389392919061143b565b60405180910390a16000600360006004548152602001908152602001600020905060046000815480929190610a6c906113bf565b919050555083816000019081610a82919061161b565b50828160010160006101000a81548173ffffffffffffffffffffffffffffffffffffffff021916908373ffffffffffffffffffffffffffffffffffffffff16021790555081816002018190555060008160040160006101000a81548160ff0219169083151502179055506000816003018190555050505050565b60008060009054906101000a900473ffffffffffffffffffffffffffffffffffffffff1673ffffffffffffffffffffffffffffffffffffffff163373ffffffffffffffffffffffffffffffffffffffff1614905090565b6000604051905090565b600080fd5b600080fd5b6000819050919050565b610b7a81610b67565b8114610b8557600080fd5b50565b600081359050610b9781610b71565b92915050565b600060208284031215610bb357610bb2610b5d565b5b6000610bc184828501610b88565b91505092915050565b600081519050919050565b600082825260208201905092915050565b60005b83811015610c04578082015181840152602081019050610be9565b60008484015250505050565b6000601f19601f8301169050919050565b6000610c2c82610bca565b610c368185610bd5565b9350610c46818560208601610be6565b610c4f81610c10565b840191505092915050565b600073ffffffffffffffffffffffffffffffffffffffff82169050919050565b6000610c8582610c5a565b9050919050565b610c9581610c7a565b82525050565b610ca481610b67565b82525050565b60008115159050919050565b610cbf81610caa565b82525050565b600060a0820190508181036000830152610cdf8188610c21565b9050610cee6020830187610c8c565b610cfb6040830186610c9b565b610d086060830185610c9b565b610d156080830184610cb6565b9695505050505050565b6000610d2a82610c5a565b9050919050565b610d3a81610d1f565b8114610d4557600080fd5b50565b600081359050610d5781610d31565b92915050565b600060208284031215610d7357610d72610b5d565b5b6000610d8184828501610d48565b91505092915050565b6000602082019050610d9f6000830184610c9b565b92915050565b610dae81610d1f565b82525050565b6000602082019050610dc96000830184610da5565b92915050565b600080fd5b600080fd5b7f4e487b7100000000000000000000000000000000000000000000000000000000600052604160045260246000fd5b610e1182610c10565b810181811067ffffffffffffffff82111715610e3057610e2f610dd9565b5b80604052505050565b6000610e43610b53565b9050610e4f8282610e08565b919050565b600067ffffffffffffffff821115610e6f57610e6e610dd9565b5b610e7882610c10565b9050602081019050919050565b82818337600083830152505050565b6000610ea7610ea284610e54565b610e39565b905082815260208101848484011115610ec357610ec2610dd4565b5b610ece848285610e85565b509392505050565b600082601f830112610eeb57610eea610dcf565b5b8135610efb848260208601610e94565b91505092915050565b610f0d81610c7a565b8114610f1857600080fd5b50565b600081359050610f2a81610f04565b92915050565b600080600060608486031215610f4957610f48610b5d565b5b600084013567ffffffffffffffff811115610f6757610f66610b62565b5b610f7386828701610ed6565b9350506020610f8486828701610f1b565b9250506040610f9586828701610b88565b9150509250925092565b6000602082019050610fb46000830184610cb6565b92915050565b7f4e487b7100000000000000000000000000000000000000000000000000000000600052602260045260246000fd5b6000600282049050600182168061100157607f821691505b60208210810361101457611013610fba565b5b50919050565b7f596f7520617265206e6f7420656c696769626c6520666f7220726566756e6400600082015250565b6000611050601f83610bd5565b915061105b8261101a565b602082019050919050565b6000602082019050818103600083015261107f81611043565b9050919050565b7f596f75206861766520616c72656479206265656e20726566756e646564000000600082015250565b60006110bc601d83610bd5565b91506110c782611086565b602082019050919050565b600060208201905081810360008301526110eb816110af565b9050919050565b6000819050919050565b600061111761111261110d84610c5a565b6110f2565b610c5a565b9050919050565b6000611129826110fc565b9050919050565b600061113b8261111e565b9050919050565b61114b81611130565b82525050565b60006040820190506111666000830185611142565b6111736020830184610c9b565b9392505050565b7f4e487b7100000000000000000000000000000000000000000000000000000000600052601160045260246000fd5b60006111b482610b67565b91506111bf83610b67565b92508282039050818111156111d7576111d661117a565b5b92915050565b60006111e882610b67565b9150600082036111fb576111fa61117a565b5b600182039050919050565b7f46756e6374696f6e2061636365737369626c65206f6e6c79206279207468652060008201527f6d616e6167657220212100000000000000000000000000000000000000000000602082015250565b6000611262602a83610bd5565b915061126d82611206565b604082019050919050565b6000602082019050818103600083015261129181611255565b9050919050565b7f5265717565737420686173206265656e20636f6d706c65746564000000000000600082015250565b60006112ce601a83610bd5565b91506112d982611298565b602082019050919050565b600060208201905081810360008301526112fd816112c1565b9050919050565b7f416d6f756e742069732067726561746572207468616e2072657175697265642060008201527f616d6f756e742c206b696e646c7920726564756365207468652076616c756500602082015250565b6000611360603f83610bd5565b915061136b82611304565b604082019050919050565b6000602082019050818103600083015261138f81611353565b9050919050565b60006040820190506113ab6000830185610da5565b6113b86020830184610c9b565b9392505050565b60006113ca82610b67565b91507fffffffffffffffffffffffffffffffffffffffffffffffffffffffffffffffff82036113fc576113fb61117a565b5b600182019050919050565b600061141282610b67565b915061141d83610b67565b92508282019050808211156114355761143461117a565b5b92915050565b600060608201905081810360008301526114558186610c21565b90506114646020830185611142565b6114716040830184610c9b565b949350505050565b60008190508160005260206000209050919050565b60006020601f8301049050919050565b600082821b905092915050565b6000600883026114db7fffffffffffffffffffffffffffffffffffffffffffffffffffffffffffffffff8261149e565b6114e5868361149e565b95508019841693508086168417925050509392505050565b600061151861151361150e84610b67565b6110f2565b610b67565b9050919050565b6000819050919050565b611532836114fd565b61154661153e8261151f565b8484546114ab565b825550505050565b600090565b61155b61154e565b611566818484611529565b505050565b5b8181101561158a5761157f600082611553565b60018101905061156c565b5050565b601f8211156115cf576115a081611479565b6115a98461148e565b810160208510156115b8578190505b6115cc6115c48561148e565b83018261156b565b50505b505050565b600082821c905092915050565b60006115f2600019846008026115d4565b1980831691505092915050565b600061160b83836115e1565b9150826002028217905092915050565b61162482610bca565b67ffffffffffffffff81111561163d5761163c610dd9565b5b6116478254610fe9565b61165282828561158e565b600060209050601f8311600181146116855760008415611673578287015190505b61167d85826115ff565b8655506116e5565b601f19841661169386611479565b60005b828110156116bb57848901518255600182019150602085019450602081019050611696565b868310156116d857848901516116d4601f8916826115e1565b8355505b6001600288020188555050505b50505050505056fea2646970667358221220a5efa506a97d781df3aeb428b6c076acd99917353483e6741b5854400edd6ec564736f6c63430008110033",
  "immutableReferences": {},
  "source": "// SPDX-License-Identifier: MIT\r\npragma solidity >=0.5.0 <0.9.0;\r\nimport './Ownable.sol';\r\n\r\ncontract CrowdFund is Ownable {\r\n    // Mapping for the contributors of the crowdfund\r\n    // Address of contributor mapped to the amount\r\n    mapping(address => uint256) public contributors;\r\n    // The count of contributors for the project\r\n    uint256 public noOfContributors;\r\n\r\n    // The project structure consisting of different variables in a struct\r\n    // description : The description of the project\r\n    // value : The amount that is required to fund this project\r\n    // completed : The status of the project\r\n    // noOfVoters : The number of voters voted to fund the project\r\n    // Mapping of the voters address and vote , false by default, true if voted\r\n    struct Project {\r\n        string description;\r\n        address payable recipient;\r\n        uint256 goalAmount;\r\n        uint256 raisedAmount;\r\n        bool completed;\r\n    }\r\n\r\n    // Mapping of the projects variable to different Projects\r\n    mapping(uint256 => Project) public projects;\r\n    // Number of projects in the crowdfund\r\n    uint256 public numProjects;\r\n\r\n    // Constructor to set the goalAmount to be raised\r\n    constructor() {  }\r\n\r\n    //this function helps the users to transfer eth directly to the smartcontract\r\n    receive() external payable {}\r\n\r\n    event amountContributed(address sender, uint256 amount);\r\n\r\n    event fundBalance(uint256 amount);\r\n\r\n    event createdProject(\r\n        string description,\r\n        address recipient,\r\n        uint256 goalAmount\r\n    );\r\n\r\n    event madePayment(uint256 projectNo);\r\n\r\n    event refundMade(address receiver, uint256 refundAmount);\r\n\r\n    // function to create projects\r\n    function createProject(\r\n        string memory _description,\r\n        address payable _recipient,\r\n        uint256 _goalAmount\r\n    ) public onlyManager {\r\n        emit createdProject(_description, _recipient, _goalAmount);\r\n        Project storage newProject = projects[numProjects];\r\n        numProjects++;\r\n        newProject.description = _description;\r\n        newProject.recipient = _recipient;\r\n        newProject.goalAmount = _goalAmount;\r\n        newProject.completed = false;\r\n        newProject.raisedAmount = 0;\r\n    }\r\n\r\n     // function to send ethers to the contract\r\n    function contributeToProject(uint256 _projectNo) public payable {\r\n        Project storage thisProject = projects[_projectNo];\r\n        require(\r\n            msg.value <= (thisProject.goalAmount - thisProject.raisedAmount),\r\n            \"Amount is greater than required amount, kindly reduce the value\"\r\n        );\r\n        emit amountContributed(msg.sender, msg.value);\r\n        emit fundBalance(address(this).balance);\r\n        if (contributors[msg.sender] == 0) {\r\n            noOfContributors++;\r\n        }\r\n        contributors[msg.sender] += msg.value;\r\n        thisProject.raisedAmount += msg.value;\r\n    }\r\n\r\n    // function to get balance of the contract\r\n    function getContractBalance() public view returns (uint256) {\r\n        return address(this).balance;\r\n    }\r\n\r\n    // function to make payment to the project receipent\r\n    function makePayment(uint256 _projectNo) public onlyManager {\r\n        Project storage thisProject = projects[_projectNo];\r\n        require(thisProject.raisedAmount >= thisProject.goalAmount);\r\n        require(thisProject.completed == false, \"Request has been completed\");\r\n        emit madePayment(_projectNo);\r\n        thisProject.recipient.transfer(thisProject.goalAmount);\r\n        thisProject.completed = true;\r\n    }\r\n\r\n    // function to process refund for the contributors if conditions are met\r\n    function refund(uint256 _projectNo) public {\r\n        Project storage thisProject = projects[_projectNo];\r\n        require(\r\n            thisProject.raisedAmount < thisProject.goalAmount,\r\n            \"You are not eligible for refund\"\r\n        );\r\n        require(contributors[msg.sender] > 0, \"You have alredy been refunded\");\r\n        address payable user = payable(msg.sender);\r\n        emit refundMade(user, contributors[msg.sender]);\r\n        user.transfer(contributors[msg.sender]);\r\n        thisProject.raisedAmount -= contributors[msg.sender];\r\n        noOfContributors--;\r\n        contributors[msg.sender] = 0;\r\n    }\r\n}\r\n",
  "sourcePath": "C:\\Users\\vishw\\Desktop\\crowd\\crowdfund\\crowd\\contracts\\Crowdfund.sol",
  "compiler": {
    "name": "solc",
    "version": "0.8.17+commit.8df45f5f.Emscripten.clang"
  },
  "schemaVersion": "3.4.11",
  "updatedAt": "2023-02-13T07:57:59.538Z",
  "networkType": "ethereum",
  "devdoc": {
    "kind": "dev",
    "methods": {},
    "version": 1
  },
  "userdoc": {
    "kind": "user",
    "methods": {},
    "version": 1
  }
}