{
  "contractName": "Ownable",
  "abi": [
    {
      "inputs": [],
      "stateMutability": "nonpayable",
      "type": "constructor"
    },
    {
      "inputs": [],
      "name": "manager",
      "outputs": [
        {
          "internalType": "address",
          "name": "",
          "type": "address"
        }
      ],
      "stateMutability": "view",
      "type": "function"
    },
    {
      "inputs": [],
      "name": "isManager",
      "outputs": [
        {
          "internalType": "bool",
          "name": "",
          "type": "bool"
        }
      ],
      "stateMutability": "view",
      "type": "function"
    }
  ],
  "bytecode": "0x608060405234801561001057600080fd5b50336000806101000a81548173ffffffffffffffffffffffffffffffffffffffff021916908373ffffffffffffffffffffffffffffffffffffffff1602179055506101bf806100606000396000f3fe608060405234801561001057600080fd5b50600436106100365760003560e01c8063481c6a751461003b578063c56a3e8814610059575b600080fd5b610043610077565b6040516100509190610115565b60405180910390f35b6100616100a0565b60405161006e9190610130565b60405180910390f35b60008060009054906101000a900473ffffffffffffffffffffffffffffffffffffffff16905090565b60008060009054906101000a900473ffffffffffffffffffffffffffffffffffffffff1673ffffffffffffffffffffffffffffffffffffffff163373ffffffffffffffffffffffffffffffffffffffff1614905090565b6101008161014b565b82525050565b61010f8161015d565b82525050565b600060208201905061012a60008301846100f7565b92915050565b60006020820190506101456000830184610106565b92915050565b600061015682610169565b9050919050565b60008115159050919050565b600073ffffffffffffffffffffffffffffffffffffffff8216905091905056fea26469706673582212204f596a86bad913c5b647c527070e9f360a1e147a44aa52b746eb83177e9e14b264736f6c63430008060033",
  "immutableReferences": {},
  "source": "// SPDX-License-Identifier: MIT\r\npragma solidity 0.8.6;\r\n\r\ncontract Ownable {\r\n    // Variable that maintains\r\n    // manager address\r\n    address private _manager;\r\n\r\n    // Sets the original manager of\r\n    // contract when it is deployed\r\n    constructor() {\r\n        _manager = msg.sender;\r\n    }\r\n\r\n    // Publicly exposes who is the\r\n    // manager of this contract\r\n    function manager() public view returns (address) {\r\n        return _manager;\r\n    }\r\n\r\n    // onlymanager modifier that validates only\r\n    // if caller of function is contract manager,\r\n    // otherwise not\r\n    modifier onlyManager() {\r\n        require(isManager(), \"Function accessible only by the manager !!\");\r\n        _;\r\n    }\r\n\r\n    // function for managers to verify their managership.\r\n    // Returns true for managers otherwise false\r\n    function isManager() public view returns (bool) {\r\n        return msg.sender == _manager;\r\n    }\r\n}\r\n",
  "sourcePath": "C:\\Users\\vishw\\Desktop\\crowd\\crowdfund\\crowd\\contracts\\Ownable.sol",
  "compiler": {
    "name": "solc",
    "version": "0.8.6+commit.11564f7e.Emscripten.clang"
  },
  "schemaVersion": "3.4.11",
  "updatedAt": "2023-02-14T17:30:42.265Z",
  "devdoc": {
    "kind": "dev",
    "methods": {},
    "version": 1
  },
  "userdoc": {
    "kind": "user",
    "methods": {},
    "version": 1
  }
}