{
  "contractName": "CrowdFund",
  "abi": [
    {
      "inputs": [],
      "stateMutability": "nonpayable",
      "type": "constructor"
    },
    {
      "anonymous": false,
      "inputs": [
        {
          "indexed": false,
          "internalType": "address",
          "name": "sender",
          "type": "address"
        },
        {
          "indexed": false,
          "internalType": "uint256",
          "name": "amount",
          "type": "uint256"
        }
      ],
      "name": "amountContributed",
      "type": "event"
    },
    {
      "anonymous": false,
      "inputs": [
        {
          "indexed": false,
          "internalType": "string",
          "name": "description",
          "type": "string"
        },
        {
          "indexed": false,
          "internalType": "address",
          "name": "recipient",
          "type": "address"
        },
        {
          "indexed": false,
          "internalType": "uint256",
          "name": "goalAmount",
          "type": "uint256"
        }
      ],
      "name": "createdProject",
      "type": "event"
    },
    {
      "anonymous": false,
      "inputs": [
        {
          "indexed": false,
          "internalType": "uint256",
          "name": "amount",
          "type": "uint256"
        }
      ],
      "name": "fundBalance",
      "type": "event"
    },
    {
      "anonymous": false,
      "inputs": [
        {
          "indexed": false,
          "internalType": "uint256",
          "name": "projectNo",
          "type": "uint256"
        }
      ],
      "name": "madePayment",
      "type": "event"
    },
    {
      "anonymous": false,
      "inputs": [
        {
          "indexed": false,
          "internalType": "address",
          "name": "receiver",
          "type": "address"
        },
        {
          "indexed": false,
          "internalType": "uint256",
          "name": "refundAmount",
          "type": "uint256"
        }
      ],
      "name": "refundMade",
      "type": "event"
    },
    {
      "inputs": [
        {
          "internalType": "address",
          "name": "",
          "type": "address"
        }
      ],
      "name": "contributors",
      "outputs": [
        {
          "internalType": "uint256",
          "name": "",
          "type": "uint256"
        }
      ],
      "stateMutability": "view",
      "type": "function",
      "constant": true
    },
    {
      "inputs": [],
      "name": "manager",
      "outputs": [
        {
          "internalType": "address",
          "name": "",
          "type": "address"
        }
      ],
      "stateMutability": "view",
      "type": "function",
      "constant": true
    },
    {
      "inputs": [],
      "name": "noOfContributors",
      "outputs": [
        {
          "internalType": "uint256",
          "name": "",
          "type": "uint256"
        }
      ],
      "stateMutability": "view",
      "type": "function",
      "constant": true
    },
    {
      "inputs": [],
      "name": "numProjects",
      "outputs": [
        {
          "internalType": "uint256",
          "name": "",
          "type": "uint256"
        }
      ],
      "stateMutability": "view",
      "type": "function",
      "constant": true
    },
    {
      "inputs": [
        {
          "internalType": "uint256",
          "name": "",
          "type": "uint256"
        }
      ],
      "name": "projects",
      "outputs": [
        {
          "internalType": "string",
          "name": "description",
          "type": "string"
        },
        {
          "internalType": "address payable",
          "name": "recipient",
          "type": "address"
        },
        {
          "internalType": "uint256",
          "name": "goalAmount",
          "type": "uint256"
        },
        {
          "internalType": "uint256",
          "name": "raisedAmount",
          "type": "uint256"
        },
        {
          "internalType": "bool",
          "name": "completed",
          "type": "bool"
        }
      ],
      "stateMutability": "view",
      "type": "function",
      "constant": true
    },
    {
      "stateMutability": "payable",
      "type": "receive",
      "payable": true
    },
    {
      "inputs": [
        {
          "internalType": "string",
          "name": "_description",
          "type": "string"
        },
        {
          "internalType": "address payable",
          "name": "_recipient",
          "type": "address"
        },
        {
          "internalType": "uint256",
          "name": "_goalAmount",
          "type": "uint256"
        }
      ],
      "name": "createProject",
      "outputs": [],
      "stateMutability": "nonpayable",
      "type": "function"
    },
    {
      "inputs": [
        {
          "internalType": "uint256",
          "name": "_projectNo",
          "type": "uint256"
        }
      ],
      "name": "contributeToProject",
      "outputs": [],
      "stateMutability": "payable",
      "type": "function",
      "payable": true
    },
    {
      "inputs": [],
      "name": "getContractBalance",
      "outputs": [
        {
          "internalType": "uint256",
          "name": "",
          "type": "uint256"
        }
      ],
      "stateMutability": "view",
      "type": "function",
      "constant": true
    },
    {
      "inputs": [
        {
          "internalType": "uint256",
          "name": "_projectNo",
          "type": "uint256"
        }
      ],
      "name": "makePayment",
      "outputs": [],
      "stateMutability": "nonpayable",
      "type": "function"
    },
    {
      "inputs": [
        {
          "internalType": "uint256",
          "name": "_projectNo",
          "type": "uint256"
        }
      ],
      "name": "refund",
      "outputs": [],
      "stateMutability": "nonpayable",
      "type": "function"
    }
  ],
  "bytecode": "0x608060405234801561001057600080fd5b5033600160006101000a81548173ffffffffffffffffffffffffffffffffffffffff021916908373ffffffffffffffffffffffffffffffffffffffff160217905550611703806100616000396000f3fe6080604052600436106100955760003560e01c80635114cb52116100595780635114cb521461019e5780635a067baa146101c75780636f9fb98a146101f2578063939f69c91461021d578063a7d97779146102395761009c565b8063107046bd146100a15780631f6d4942146100e2578063278ecde11461011f578063481c6a75146101485780634e260f6f146101735761009c565b3661009c57005b600080fd5b3480156100ad57600080fd5b506100c860048036038101906100c39190610b98565b610262565b6040516100d9959493929190610cc0565b60405180910390f35b3480156100ee57600080fd5b5061010960048036038101906101049190610d58565b61034d565b6040516101169190610d85565b60405180910390f35b34801561012b57600080fd5b5061014660048036038101906101419190610b98565b610365565b005b34801561015457600080fd5b5061015d610602565b60405161016a9190610daf565b60405180910390f35b34801561017f57600080fd5b50610188610628565b6040516101959190610d85565b60405180910390f35b3480156101aa57600080fd5b506101c560048036038101906101c09190610b98565b61062e565b005b3480156101d357600080fd5b506101dc610809565b6040516101e99190610d85565b60405180910390f35b3480156101fe57600080fd5b5061020761080f565b6040516102149190610d85565b60405180910390f35b61023760048036038101906102329190610b98565b610817565b005b34801561024557600080fd5b50610260600480360381019061025b9190610f2b565b6109c7565b005b600360205280600052604060002060009150905080600001805461028590610fc9565b80601f01602080910402602001604051908101604052809291908181526020018280546102b190610fc9565b80156102fe5780601f106102d3576101008083540402835291602001916102fe565b820191906000526020600020905b8154815290600101906020018083116102e157829003601f168201915b5050505050908060010160009054906101000a900473ffffffffffffffffffffffffffffffffffffffff16908060020154908060030154908060040160009054906101000a900460ff16905085565b60006020528060005260406000206000915090505481565b600060036000838152602001908152602001600020905080600201548160030154106103c6576040517f08c379a00000000000000000000000000000000000000000000000000000000081526004016103bd90611046565b60405180910390fd5b60008060003373ffffffffffffffffffffffffffffffffffffffff1673ffffffffffffffffffffffffffffffffffffffff1681526020019081526020016000205411610447576040517f08c379a000000000000000000000000000000000000000000000000000000000815260040161043e906110b2565b60405180910390fd5b60003390507f87972e753f2ee5f467201ebadf9d5d9ffda5102b62e47a5218087fb3f72422a1816000803373ffffffffffffffffffffffffffffffffffffffff1673ffffffffffffffffffffffffffffffffffffffff168152602001908152602001600020546040516104bb929190611131565b60405180910390a18073ffffffffffffffffffffffffffffffffffffffff166108fc6000803373ffffffffffffffffffffffffffffffffffffffff1673ffffffffffffffffffffffffffffffffffffffff168152602001908152602001600020549081150290604051600060405180830381858888f19350505050158015610547573d6000803e3d6000fd5b506000803373ffffffffffffffffffffffffffffffffffffffff1673ffffffffffffffffffffffffffffffffffffffff1681526020019081526020016000205482600301600082825461059a9190611189565b92505081905550600260008154809291906105b4906111bd565b919050555060008060003373ffffffffffffffffffffffffffffffffffffffff1673ffffffffffffffffffffffffffffffffffffffff16815260200190815260200160002081905550505050565b600160009054906101000a900473ffffffffffffffffffffffffffffffffffffffff1681565b60025481565b600160009054906101000a900473ffffffffffffffffffffffffffffffffffffffff1673ffffffffffffffffffffffffffffffffffffffff163373ffffffffffffffffffffffffffffffffffffffff16146106be576040517f08c379a00000000000000000000000000000000000000000000000000000000081526004016106b590611258565b60405180910390fd5b60006003600083815260200190815260200160002090508060020154816003015410156106ea57600080fd5b600015158160040160009054906101000a900460ff16151514610742576040517f08c379a0000000000000000000000000000000000000000000000000000000008152600401610739906112c4565b60405180910390fd5b7fed166535efaf70ec24d63aa6d50f5aa9cf33003815cc2da4c99cc39592699dea826040516107719190610d85565b60405180910390a18060010160009054906101000a900473ffffffffffffffffffffffffffffffffffffffff1673ffffffffffffffffffffffffffffffffffffffff166108fc82600201549081150290604051600060405180830381858888f193505050501580156107e7573d6000803e3d6000fd5b5060018160040160006101000a81548160ff0219169083151502179055505050565b60045481565b600047905090565b6000600360008381526020019081526020016000209050806003015481600201546108429190611189565b341115610884576040517f08c379a000000000000000000000000000000000000000000000000000000000815260040161087b90611356565b60405180910390fd5b7fd7f836870836febcba036447f5bf5049d6709d41d964b92b327ea9a2c7ccfb7d33346040516108b5929190611376565b60405180910390a17fbe079f3449d45b6b62ec365e6a2db78f3069f12787c8ada6c9e7811c34691450476040516108ec9190610d85565b60405180910390a160008060003373ffffffffffffffffffffffffffffffffffffffff1673ffffffffffffffffffffffffffffffffffffffff1681526020019081526020016000205403610953576002600081548092919061094d9061139f565b91905055505b346000803373ffffffffffffffffffffffffffffffffffffffff1673ffffffffffffffffffffffffffffffffffffffff16815260200190815260200160002060008282546109a191906113e7565b92505081905550348160030160008282546109bc91906113e7565b925050819055505050565b600160009054906101000a900473ffffffffffffffffffffffffffffffffffffffff1673ffffffffffffffffffffffffffffffffffffffff163373ffffffffffffffffffffffffffffffffffffffff1614610a57576040517f08c379a0000000000000000000000000000000000000000000000000000000008152600401610a4e90611258565b60405180910390fd5b7f9bbdddb9f6bbcb119f5f6d46d106dab175d6ab8b81cee5fc5fbe17fdfc315d71838383604051610a8a9392919061141b565b60405180910390a16000600360006004548152602001908152602001600020905060046000815480929190610abe9061139f565b919050555083816000019081610ad491906115fb565b50828160010160006101000a81548173ffffffffffffffffffffffffffffffffffffffff021916908373ffffffffffffffffffffffffffffffffffffffff16021790555081816002018190555060008160040160006101000a81548160ff0219169083151502179055506000816003018190555050505050565b6000604051905090565b600080fd5b600080fd5b6000819050919050565b610b7581610b62565b8114610b8057600080fd5b50565b600081359050610b9281610b6c565b92915050565b600060208284031215610bae57610bad610b58565b5b6000610bbc84828501610b83565b91505092915050565b600081519050919050565b600082825260208201905092915050565b60005b83811015610bff578082015181840152602081019050610be4565b60008484015250505050565b6000601f19601f8301169050919050565b6000610c2782610bc5565b610c318185610bd0565b9350610c41818560208601610be1565b610c4a81610c0b565b840191505092915050565b600073ffffffffffffffffffffffffffffffffffffffff82169050919050565b6000610c8082610c55565b9050919050565b610c9081610c75565b82525050565b610c9f81610b62565b82525050565b60008115159050919050565b610cba81610ca5565b82525050565b600060a0820190508181036000830152610cda8188610c1c565b9050610ce96020830187610c87565b610cf66040830186610c96565b610d036060830185610c96565b610d106080830184610cb1565b9695505050505050565b6000610d2582610c55565b9050919050565b610d3581610d1a565b8114610d4057600080fd5b50565b600081359050610d5281610d2c565b92915050565b600060208284031215610d6e57610d6d610b58565b5b6000610d7c84828501610d43565b91505092915050565b6000602082019050610d9a6000830184610c96565b92915050565b610da981610d1a565b82525050565b6000602082019050610dc46000830184610da0565b92915050565b600080fd5b600080fd5b7f4e487b7100000000000000000000000000000000000000000000000000000000600052604160045260246000fd5b610e0c82610c0b565b810181811067ffffffffffffffff82111715610e2b57610e2a610dd4565b5b80604052505050565b6000610e3e610b4e565b9050610e4a8282610e03565b919050565b600067ffffffffffffffff821115610e6a57610e69610dd4565b5b610e7382610c0b565b9050602081019050919050565b82818337600083830152505050565b6000610ea2610e9d84610e4f565b610e34565b905082815260208101848484011115610ebe57610ebd610dcf565b5b610ec9848285610e80565b509392505050565b600082601f830112610ee657610ee5610dca565b5b8135610ef6848260208601610e8f565b91505092915050565b610f0881610c75565b8114610f1357600080fd5b50565b600081359050610f2581610eff565b92915050565b600080600060608486031215610f4457610f43610b58565b5b600084013567ffffffffffffffff811115610f6257610f61610b5d565b5b610f6e86828701610ed1565b9350506020610f7f86828701610f16565b9250506040610f9086828701610b83565b9150509250925092565b7f4e487b7100000000000000000000000000000000000000000000000000000000600052602260045260246000fd5b60006002820490506001821680610fe157607f821691505b602082108103610ff457610ff3610f9a565b5b50919050565b7f596f7520617265206e6f7420656c696769626c6520666f7220726566756e6400600082015250565b6000611030601f83610bd0565b915061103b82610ffa565b602082019050919050565b6000602082019050818103600083015261105f81611023565b9050919050565b7f596f75206861766520616c72656479206265656e20726566756e646564000000600082015250565b600061109c601d83610bd0565b91506110a782611066565b602082019050919050565b600060208201905081810360008301526110cb8161108f565b9050919050565b6000819050919050565b60006110f76110f26110ed84610c55565b6110d2565b610c55565b9050919050565b6000611109826110dc565b9050919050565b600061111b826110fe565b9050919050565b61112b81611110565b82525050565b60006040820190506111466000830185611122565b6111536020830184610c96565b9392505050565b7f4e487b7100000000000000000000000000000000000000000000000000000000600052601160045260246000fd5b600061119482610b62565b915061119f83610b62565b92508282039050818111156111b7576111b661115a565b5b92915050565b60006111c882610b62565b9150600082036111db576111da61115a565b5b600182039050919050565b7f4f6e6c79206d616e616765722063616e2063616c6c20746869732066756e637460008201527f696f6e0000000000000000000000000000000000000000000000000000000000602082015250565b6000611242602383610bd0565b915061124d826111e6565b604082019050919050565b6000602082019050818103600083015261127181611235565b9050919050565b7f5265717565737420686173206265656e20636f6d706c65746564000000000000600082015250565b60006112ae601a83610bd0565b91506112b982611278565b602082019050919050565b600060208201905081810360008301526112dd816112a1565b9050919050565b7f416d6f756e742069732067726561746572207468616e2072657175697265642060008201527f616d6f756e742c206b696e646c7920726564756365207468652076616c756500602082015250565b6000611340603f83610bd0565b915061134b826112e4565b604082019050919050565b6000602082019050818103600083015261136f81611333565b9050919050565b600060408201905061138b6000830185610da0565b6113986020830184610c96565b9392505050565b60006113aa82610b62565b91507fffffffffffffffffffffffffffffffffffffffffffffffffffffffffffffffff82036113dc576113db61115a565b5b600182019050919050565b60006113f282610b62565b91506113fd83610b62565b92508282019050808211156114155761141461115a565b5b92915050565b600060608201905081810360008301526114358186610c1c565b90506114446020830185611122565b6114516040830184610c96565b949350505050565b60008190508160005260206000209050919050565b60006020601f8301049050919050565b600082821b905092915050565b6000600883026114bb7fffffffffffffffffffffffffffffffffffffffffffffffffffffffffffffffff8261147e565b6114c5868361147e565b95508019841693508086168417925050509392505050565b60006114f86114f36114ee84610b62565b6110d2565b610b62565b9050919050565b6000819050919050565b611512836114dd565b61152661151e826114ff565b84845461148b565b825550505050565b600090565b61153b61152e565b611546818484611509565b505050565b5b8181101561156a5761155f600082611533565b60018101905061154c565b5050565b601f8211156115af5761158081611459565b6115898461146e565b81016020851015611598578190505b6115ac6115a48561146e565b83018261154b565b50505b505050565b600082821c905092915050565b60006115d2600019846008026115b4565b1980831691505092915050565b60006115eb83836115c1565b9150826002028217905092915050565b61160482610bc5565b67ffffffffffffffff81111561161d5761161c610dd4565b5b6116278254610fc9565b61163282828561156e565b600060209050601f8311600181146116655760008415611653578287015190505b61165d85826115df565b8655506116c5565b601f19841661167386611459565b60005b8281101561169b57848901518255600182019150602085019450602081019050611676565b868310156116b857848901516116b4601f8916826115c1565b8355505b6001600288020188555050505b50505050505056fea2646970667358221220a9a718cbfef6254e795709a436422d408516f2e95f1da1cc0c2dbb3ed3fdba8064736f6c63430008110033",
  "immutableReferences": {},
  "source": "// SPDX-License-Identifier: MIT\r\npragma solidity >=0.5.0 <0.9.0;\r\n\r\ncontract CrowdFund {\r\n    // Mapping for the contributors of the crowdfund\r\n    // Address of contributor mapped to the amount\r\n    mapping(address => uint256) public contributors;\r\n    // Address of the manager of the crowdfund\r\n    address public manager;\r\n    // The count of contributors for the project\r\n    uint256 public noOfContributors;\r\n\r\n    // The project structure consisting of different variables in a struct\r\n    // description : The description of the project\r\n    // value : The amount that is required to fund this project\r\n    // completed : The status of the project\r\n    // noOfVoters : The number of voters voted to fund the project\r\n    // Mapping of the voters address and vote , false by default, true if voted\r\n    struct Project {\r\n        string description;\r\n        address payable recipient;\r\n        uint256 goalAmount;\r\n        uint256 raisedAmount;\r\n        bool completed;\r\n    }\r\n\r\n    // Mapping of the projects variable to different Projects\r\n    mapping(uint256 => Project) public projects;\r\n    // Number of projects in the crowdfund\r\n    uint256 public numProjects;\r\n\r\n    // Constructor to set the goalAmount to be raised\r\n    constructor() {\r\n        manager = msg.sender;\r\n    }\r\n\r\n    //this function helps the users to transfer eth directly to the smartcontract\r\n    receive() external payable {}\r\n\r\n    event amountContributed(address sender, uint256 amount);\r\n\r\n    event fundBalance(uint256 amount);\r\n\r\n    event createdProject(\r\n        string description,\r\n        address recipient,\r\n        uint256 goalAmount\r\n    );\r\n\r\n    event madePayment(uint256 projectNo);\r\n\r\n    event refundMade(address receiver, uint256 refundAmount);\r\n\r\n    // modifier to only allow manager to call some functions\r\n    modifier onlyManager() {\r\n        require(msg.sender == manager, \"Only manager can call this function\");\r\n        _;\r\n    }\r\n\r\n    // function to create projects\r\n    function createProject(\r\n        string memory _description,\r\n        address payable _recipient,\r\n        uint256 _goalAmount\r\n    ) public onlyManager {\r\n        emit createdProject(_description, _recipient, _goalAmount);\r\n        Project storage newProject = projects[numProjects];\r\n        numProjects++;\r\n        newProject.description = _description;\r\n        newProject.recipient = _recipient;\r\n        newProject.goalAmount = _goalAmount;\r\n        newProject.completed = false;\r\n        newProject.raisedAmount = 0;\r\n    }\r\n\r\n     // function to send ethers to the contract\r\n    function contributeToProject(uint256 _projectNo) public payable {\r\n        Project storage thisProject = projects[_projectNo];\r\n        require(\r\n            msg.value <= (thisProject.goalAmount - thisProject.raisedAmount),\r\n            \"Amount is greater than required amount, kindly reduce the value\"\r\n        );\r\n        emit amountContributed(msg.sender, msg.value);\r\n        emit fundBalance(address(this).balance);\r\n        if (contributors[msg.sender] == 0) {\r\n            noOfContributors++;\r\n        }\r\n        contributors[msg.sender] += msg.value;\r\n        thisProject.raisedAmount += msg.value;\r\n    }\r\n\r\n    // function to get balance of the contract\r\n    function getContractBalance() public view returns (uint256) {\r\n        return address(this).balance;\r\n    }\r\n\r\n    // function to make payment to the project receipent\r\n    function makePayment(uint256 _projectNo) public onlyManager {\r\n        Project storage thisProject = projects[_projectNo];\r\n        require(thisProject.raisedAmount >= thisProject.goalAmount);\r\n        require(thisProject.completed == false, \"Request has been completed\");\r\n        emit madePayment(_projectNo);\r\n        thisProject.recipient.transfer(thisProject.goalAmount);\r\n        thisProject.completed = true;\r\n    }\r\n\r\n    // function to process refund for the contributors if conditions are met\r\n    function refund(uint256 _projectNo) public {\r\n        Project storage thisProject = projects[_projectNo];\r\n        require(\r\n            thisProject.raisedAmount < thisProject.goalAmount,\r\n            \"You are not eligible for refund\"\r\n        );\r\n        require(contributors[msg.sender] > 0, \"You have alredy been refunded\");\r\n        address payable user = payable(msg.sender);\r\n        emit refundMade(user, contributors[msg.sender]);\r\n        user.transfer(contributors[msg.sender]);\r\n        thisProject.raisedAmount -= contributors[msg.sender];\r\n        noOfContributors--;\r\n        contributors[msg.sender] = 0;\r\n    }\r\n}\r\n",
  "sourcePath": "C:\\Users\\pavan\\Desktop\\crowd\\contracts\\Crowdfund.sol",
  "compiler": {
    "name": "solc",
    "version": "0.8.17+commit.8df45f5f.Emscripten.clang"
  },
  "schemaVersion": "3.4.11",
  "updatedAt": "2023-02-06T16:40:30.317Z",
  "networkType": "ethereum",
  "devdoc": {
    "kind": "dev",
    "methods": {},
    "version": 1
  },
  "userdoc": {
    "kind": "user",
    "methods": {},
    "version": 1
  }
}